{"abi":[{"type":"constructor","inputs":[{"name":"assets","type":"address","internalType":"address"}],"stateMutability":"nonpayable"},{"type":"function","name":"allowance","inputs":[{"name":"owner","type":"address","internalType":"address"},{"name":"spender","type":"address","internalType":"address"}],"outputs":[{"name":"","type":"uint256","internalType":"uint256"}],"stateMutability":"view"},{"type":"function","name":"approve","inputs":[{"name":"spender","type":"address","internalType":"address"},{"name":"value","type":"uint256","internalType":"uint256"}],"outputs":[{"name":"","type":"bool","internalType":"bool"}],"stateMutability":"nonpayable"},{"type":"function","name":"balanceOf","inputs":[{"name":"account","type":"address","internalType":"address"}],"outputs":[{"name":"","type":"uint256","internalType":"uint256"}],"stateMutability":"view"},{"type":"function","name":"convertAssetToShare","inputs":[{"name":"_amount","type":"uint256","internalType":"uint256"}],"outputs":[{"name":"","type":"uint256","internalType":"uint256"}],"stateMutability":"view"},{"type":"function","name":"convertSharesToAsset","inputs":[{"name":"_shares","type":"uint256","internalType":"uint256"}],"outputs":[{"name":"","type":"uint256","internalType":"uint256"}],"stateMutability":"view"},{"type":"function","name":"decimals","inputs":[],"outputs":[{"name":"","type":"uint8","internalType":"uint8"}],"stateMutability":"view"},{"type":"function","name":"deposit","inputs":[{"name":"_amount","type":"uint256","internalType":"uint256"}],"outputs":[],"stateMutability":"nonpayable"},{"type":"function","name":"name","inputs":[],"outputs":[{"name":"","type":"string","internalType":"string"}],"stateMutability":"view"},{"type":"function","name":"symbol","inputs":[],"outputs":[{"name":"","type":"string","internalType":"string"}],"stateMutability":"view"},{"type":"function","name":"totalAsset","inputs":[],"outputs":[{"name":"","type":"uint256","internalType":"uint256"}],"stateMutability":"view"},{"type":"function","name":"totalSupply","inputs":[],"outputs":[{"name":"","type":"uint256","internalType":"uint256"}],"stateMutability":"view"},{"type":"function","name":"transfer","inputs":[{"name":"to","type":"address","internalType":"address"},{"name":"value","type":"uint256","internalType":"uint256"}],"outputs":[{"name":"","type":"bool","internalType":"bool"}],"stateMutability":"nonpayable"},{"type":"function","name":"transferFrom","inputs":[{"name":"from","type":"address","internalType":"address"},{"name":"to","type":"address","internalType":"address"},{"name":"value","type":"uint256","internalType":"uint256"}],"outputs":[{"name":"","type":"bool","internalType":"bool"}],"stateMutability":"nonpayable"},{"type":"function","name":"withdraw","inputs":[{"name":"_shares","type":"uint256","internalType":"uint256"}],"outputs":[],"stateMutability":"nonpayable"},{"type":"event","name":"Approval","inputs":[{"name":"owner","type":"address","indexed":true,"internalType":"address"},{"name":"spender","type":"address","indexed":true,"internalType":"address"},{"name":"value","type":"uint256","indexed":false,"internalType":"uint256"}],"anonymous":false},{"type":"event","name":"Transfer","inputs":[{"name":"from","type":"address","indexed":true,"internalType":"address"},{"name":"to","type":"address","indexed":true,"internalType":"address"},{"name":"value","type":"uint256","indexed":false,"internalType":"uint256"}],"anonymous":false},{"type":"error","name":"ERC20InsufficientAllowance","inputs":[{"name":"spender","type":"address","internalType":"address"},{"name":"allowance","type":"uint256","internalType":"uint256"},{"name":"needed","type":"uint256","internalType":"uint256"}]},{"type":"error","name":"ERC20InsufficientBalance","inputs":[{"name":"sender","type":"address","internalType":"address"},{"name":"balance","type":"uint256","internalType":"uint256"},{"name":"needed","type":"uint256","internalType":"uint256"}]},{"type":"error","name":"ERC20InvalidApprover","inputs":[{"name":"approver","type":"address","internalType":"address"}]},{"type":"error","name":"ERC20InvalidReceiver","inputs":[{"name":"receiver","type":"address","internalType":"address"}]},{"type":"error","name":"ERC20InvalidSender","inputs":[{"name":"sender","type":"address","internalType":"address"}]},{"type":"error","name":"ERC20InvalidSpender","inputs":[{"name":"spender","type":"address","internalType":"address"}]}],"bytecode":{"object":"0x60a060405234801561000f575f5ffd5b50604051611c5d380380611c5d83398181016040528101906100319190610157565b6040518060400160405280600a81526020017f5661756c74546f6b656e000000000000000000000000000000000000000000008152506040518060400160405280600381526020017f565458000000000000000000000000000000000000000000000000000000000081525081600390816100ac91906103bf565b5080600490816100bc91906103bf565b5050508073ffffffffffffffffffffffffffffffffffffffff1660808173ffffffffffffffffffffffffffffffffffffffff16815250505061048e565b5f5ffd5b5f73ffffffffffffffffffffffffffffffffffffffff82169050919050565b5f610126826100fd565b9050919050565b6101368161011c565b8114610140575f5ffd5b50565b5f815190506101518161012d565b92915050565b5f6020828403121561016c5761016b6100f9565b5b5f61017984828501610143565b91505092915050565b5f81519050919050565b7f4e487b71000000000000000000000000000000000000000000000000000000005f52604160045260245ffd5b7f4e487b71000000000000000000000000000000000000000000000000000000005f52602260045260245ffd5b5f60028204905060018216806101fd57607f821691505b6020821081036102105761020f6101b9565b5b50919050565b5f819050815f5260205f209050919050565b5f6020601f8301049050919050565b5f82821b905092915050565b5f600883026102727fffffffffffffffffffffffffffffffffffffffffffffffffffffffffffffffff82610237565b61027c8683610237565b95508019841693508086168417925050509392505050565b5f819050919050565b5f819050919050565b5f6102c06102bb6102b684610294565b61029d565b610294565b9050919050565b5f819050919050565b6102d9836102a6565b6102ed6102e5826102c7565b848454610243565b825550505050565b5f5f905090565b6103046102f5565b61030f8184846102d0565b505050565b5b81811015610332576103275f826102fc565b600181019050610315565b5050565b601f8211156103775761034881610216565b61035184610228565b81016020851015610360578190505b61037461036c85610228565b830182610314565b50505b505050565b5f82821c905092915050565b5f6103975f198460080261037c565b1980831691505092915050565b5f6103af8383610388565b9150826002028217905092915050565b6103c882610182565b67ffffffffffffffff8111156103e1576103e061018c565b5b6103eb82546101e6565b6103f6828285610336565b5f60209050601f831160018114610427575f8415610415578287015190505b61041f85826103a4565b865550610486565b601f19841661043586610216565b5f5b8281101561045c57848901518255600182019150602085019450602081019050610437565b868310156104795784890151610475601f891682610388565b8355505b6001600288020188555050505b505050505050565b6080516117a26104bb5f395f81816104a00152818161058401528181610806015261093501526117a25ff3fe608060405234801561000f575f5ffd5b50600436106100e8575f3560e01c806370a082311161008a578063a9059cbb11610064578063a9059cbb14610270578063b6b55f25146102a0578063dd62ed3e146102bc578063f9557ccb146102ec576100e8565b806370a08231146101f257806373fec4501461022257806395d89b4114610252576100e8565b806323b872dd116100c657806323b872dd146101585780632d128728146101885780632e1a7d4d146101b8578063313ce567146101d4576100e8565b806306fdde03146100ec578063095ea7b31461010a57806318160ddd1461013a575b5f5ffd5b6100f461030a565b60405161010191906110c2565b60405180910390f35b610124600480360381019061011f9190611173565b61039a565b60405161013191906111cb565b60405180910390f35b6101426103bc565b60405161014f91906111f3565b60405180910390f35b610172600480360381019061016d919061120c565b6103c5565b60405161017f91906111cb565b60405180910390f35b6101a2600480360381019061019d919061125c565b6103f3565b6040516101af91906111f3565b60405180910390f35b6101d260048036038101906101cd919061125c565b610446565b005b6101dc610622565b6040516101e991906112a2565b60405180910390f35b61020c600480360381019061020791906112bb565b61062a565b60405161021991906111f3565b60405180910390f35b61023c6004803603810190610237919061125c565b61066f565b60405161024991906111f3565b60405180910390f35b61025a6106c2565b60405161026791906110c2565b60405180910390f35b61028a60048036038101906102859190611173565b610752565b60405161029791906111cb565b60405180910390f35b6102ba60048036038101906102b5919061125c565b610774565b005b6102d660048036038101906102d191906112e6565b6108b0565b6040516102e391906111f3565b60405180910390f35b6102f4610932565b60405161030191906111f3565b60405180910390f35b60606003805461031990611351565b80601f016020809104026020016040519081016040528092919081815260200182805461034590611351565b80156103905780601f1061036757610100808354040283529160200191610390565b820191905f5260205f20905b81548152906001019060200180831161037357829003601f168201915b5050505050905090565b5f5f6103a46109d0565b90506103b18185856109d7565b600191505092915050565b5f600254905090565b5f5f6103cf6109d0565b90506103dc8582856109e9565b6103e7858585610a7c565b60019150509392505050565b5f670de0b6b3a76400006104056103bc565b61040f91906113ae565b670de0b6b3a7640000610420610932565b61042a91906113ae565b8361043591906113e1565b61043f919061144f565b9050919050565b5f8111610488576040517f08c379a000000000000000000000000000000000000000000000000000000000815260040161047f906114c9565b60405180910390fd5b5f610492826103f3565b90505f8111801561053957507f000000000000000000000000000000000000000000000000000000000000000073ffffffffffffffffffffffffffffffffffffffff166370a08231306040518263ffffffff1660e01b81526004016104f791906114f6565b602060405180830381865afa158015610512573d5f5f3e3d5ffd5b505050506040513d601f19601f820116820180604052508101906105369190611523565b81105b610578576040517f08c379a000000000000000000000000000000000000000000000000000000000815260040161056f90611598565b60405180910390fd5b6105823383610b6c565b7f000000000000000000000000000000000000000000000000000000000000000073ffffffffffffffffffffffffffffffffffffffff1663a9059cbb33836040518363ffffffff1660e01b81526004016105dd9291906115b6565b6020604051808303815f875af11580156105f9573d5f5f3e3d5ffd5b505050506040513d601f19601f8201168201806040525081019061061d9190611607565b505050565b5f6012905090565b5f5f5f8373ffffffffffffffffffffffffffffffffffffffff1673ffffffffffffffffffffffffffffffffffffffff1681526020019081526020015f20549050919050565b5f670de0b6b3a7640000610681610932565b61068b91906113ae565b670de0b6b3a764000061069c6103bc565b6106a691906113ae565b836106b191906113e1565b6106bb919061144f565b9050919050565b6060600480546106d190611351565b80601f01602080910402602001604051908101604052809291908181526020018280546106fd90611351565b80156107485780601f1061071f57610100808354040283529160200191610748565b820191905f5260205f20905b81548152906001019060200180831161072b57829003601f168201915b5050505050905090565b5f5f61075c6109d0565b9050610769818585610a7c565b600191505092915050565b5f81116107b6576040517f08c379a00000000000000000000000000000000000000000000000000000000081526004016107ad9061167c565b60405180910390fd5b5f6107c08261066f565b90505f8111610804576040517f08c379a00000000000000000000000000000000000000000000000000000000081526004016107fb906116e4565b60405180910390fd5b7f000000000000000000000000000000000000000000000000000000000000000073ffffffffffffffffffffffffffffffffffffffff166323b872dd3330856040518463ffffffff1660e01b815260040161086193929190611702565b6020604051808303815f875af115801561087d573d5f5f3e3d5ffd5b505050506040513d601f19601f820116820180604052508101906108a19190611607565b506108ac3382610beb565b5050565b5f60015f8473ffffffffffffffffffffffffffffffffffffffff1673ffffffffffffffffffffffffffffffffffffffff1681526020019081526020015f205f8373ffffffffffffffffffffffffffffffffffffffff1673ffffffffffffffffffffffffffffffffffffffff1681526020019081526020015f2054905092915050565b5f7f000000000000000000000000000000000000000000000000000000000000000073ffffffffffffffffffffffffffffffffffffffff166370a08231306040518263ffffffff1660e01b815260040161098c91906114f6565b602060405180830381865afa1580156109a7573d5f5f3e3d5ffd5b505050506040513d601f19601f820116820180604052508101906109cb9190611523565b905090565b5f33905090565b6109e48383836001610c6a565b505050565b5f6109f484846108b0565b90507fffffffffffffffffffffffffffffffffffffffffffffffffffffffffffffffff811015610a765781811015610a67578281836040517ffb8f41b2000000000000000000000000000000000000000000000000000000008152600401610a5e93929190611737565b60405180910390fd5b610a7584848484035f610c6a565b5b50505050565b5f73ffffffffffffffffffffffffffffffffffffffff168373ffffffffffffffffffffffffffffffffffffffff1603610aec575f6040517f96c6fd1e000000000000000000000000000000000000000000000000000000008152600401610ae391906114f6565b60405180910390fd5b5f73ffffffffffffffffffffffffffffffffffffffff168273ffffffffffffffffffffffffffffffffffffffff1603610b5c575f6040517fec442f05000000000000000000000000000000000000000000000000000000008152600401610b5391906114f6565b60405180910390fd5b610b67838383610e39565b505050565b5f73ffffffffffffffffffffffffffffffffffffffff168273ffffffffffffffffffffffffffffffffffffffff1603610bdc575f6040517f96c6fd1e000000000000000000000000000000000000000000000000000000008152600401610bd391906114f6565b60405180910390fd5b610be7825f83610e39565b5050565b5f73ffffffffffffffffffffffffffffffffffffffff168273ffffffffffffffffffffffffffffffffffffffff1603610c5b575f6040517fec442f05000000000000000000000000000000000000000000000000000000008152600401610c5291906114f6565b60405180910390fd5b610c665f8383610e39565b5050565b5f73ffffffffffffffffffffffffffffffffffffffff168473ffffffffffffffffffffffffffffffffffffffff1603610cda575f6040517fe602df05000000000000000000000000000000000000000000000000000000008152600401610cd191906114f6565b60405180910390fd5b5f73ffffffffffffffffffffffffffffffffffffffff168373ffffffffffffffffffffffffffffffffffffffff1603610d4a575f6040517f94280d62000000000000000000000000000000000000000000000000000000008152600401610d4191906114f6565b60405180910390fd5b8160015f8673ffffffffffffffffffffffffffffffffffffffff1673ffffffffffffffffffffffffffffffffffffffff1681526020019081526020015f205f8573ffffffffffffffffffffffffffffffffffffffff1673ffffffffffffffffffffffffffffffffffffffff1681526020019081526020015f20819055508015610e33578273ffffffffffffffffffffffffffffffffffffffff168473ffffffffffffffffffffffffffffffffffffffff167f8c5be1e5ebec7d5bd14f71427d1e84f3dd0314c0f7b2291e5b200ac8c7c3b92584604051610e2a91906111f3565b60405180910390a35b50505050565b5f73ffffffffffffffffffffffffffffffffffffffff168373ffffffffffffffffffffffffffffffffffffffff1603610e89578060025f828254610e7d91906113ae565b92505081905550610f57565b5f5f5f8573ffffffffffffffffffffffffffffffffffffffff1673ffffffffffffffffffffffffffffffffffffffff1681526020019081526020015f2054905081811015610f12578381836040517fe450d38c000000000000000000000000000000000000000000000000000000008152600401610f0993929190611737565b60405180910390fd5b8181035f5f8673ffffffffffffffffffffffffffffffffffffffff1673ffffffffffffffffffffffffffffffffffffffff1681526020019081526020015f2081905550505b5f73ffffffffffffffffffffffffffffffffffffffff168273ffffffffffffffffffffffffffffffffffffffff1603610f9e578060025f8282540392505081905550610fe8565b805f5f8473ffffffffffffffffffffffffffffffffffffffff1673ffffffffffffffffffffffffffffffffffffffff1681526020019081526020015f205f82825401925050819055505b8173ffffffffffffffffffffffffffffffffffffffff168373ffffffffffffffffffffffffffffffffffffffff167fddf252ad1be2c89b69c2b068fc378daa952ba7f163c4a11628f55a4df523b3ef8360405161104591906111f3565b60405180910390a3505050565b5f81519050919050565b5f82825260208201905092915050565b8281835e5f83830152505050565b5f601f19601f8301169050919050565b5f61109482611052565b61109e818561105c565b93506110ae81856020860161106c565b6110b78161107a565b840191505092915050565b5f6020820190508181035f8301526110da818461108a565b905092915050565b5f5ffd5b5f73ffffffffffffffffffffffffffffffffffffffff82169050919050565b5f61110f826110e6565b9050919050565b61111f81611105565b8114611129575f5ffd5b50565b5f8135905061113a81611116565b92915050565b5f819050919050565b61115281611140565b811461115c575f5ffd5b50565b5f8135905061116d81611149565b92915050565b5f5f60408385031215611189576111886110e2565b5b5f6111968582860161112c565b92505060206111a78582860161115f565b9150509250929050565b5f8115159050919050565b6111c5816111b1565b82525050565b5f6020820190506111de5f8301846111bc565b92915050565b6111ed81611140565b82525050565b5f6020820190506112065f8301846111e4565b92915050565b5f5f5f60608486031215611223576112226110e2565b5b5f6112308682870161112c565b93505060206112418682870161112c565b92505060406112528682870161115f565b9150509250925092565b5f60208284031215611271576112706110e2565b5b5f61127e8482850161115f565b91505092915050565b5f60ff82169050919050565b61129c81611287565b82525050565b5f6020820190506112b55f830184611293565b92915050565b5f602082840312156112d0576112cf6110e2565b5b5f6112dd8482850161112c565b91505092915050565b5f5f604083850312156112fc576112fb6110e2565b5b5f6113098582860161112c565b925050602061131a8582860161112c565b9150509250929050565b7f4e487b71000000000000000000000000000000000000000000000000000000005f52602260045260245ffd5b5f600282049050600182168061136857607f821691505b60208210810361137b5761137a611324565b5b50919050565b7f4e487b71000000000000000000000000000000000000000000000000000000005f52601160045260245ffd5b5f6113b882611140565b91506113c383611140565b92508282019050808211156113db576113da611381565b5b92915050565b5f6113eb82611140565b91506113f683611140565b925082820261140481611140565b9150828204841483151761141b5761141a611381565b5b5092915050565b7f4e487b71000000000000000000000000000000000000000000000000000000005f52601260045260245ffd5b5f61145982611140565b915061146483611140565b92508261147457611473611422565b5b828204905092915050565b7f6e6f7420656e6f756768205368617265730000000000000000000000000000005f82015250565b5f6114b360118361105c565b91506114be8261147f565b602082019050919050565b5f6020820190508181035f8301526114e0816114a7565b9050919050565b6114f081611105565b82525050565b5f6020820190506115095f8301846114e7565b92915050565b5f8151905061151d81611149565b92915050565b5f60208284031215611538576115376110e2565b5b5f6115458482850161150f565b91505092915050565b7f6e6f7420656e6f756768206173736574000000000000000000000000000000005f82015250565b5f61158260108361105c565b915061158d8261154e565b602082019050919050565b5f6020820190508181035f8301526115af81611576565b9050919050565b5f6040820190506115c95f8301856114e7565b6115d660208301846111e4565b9392505050565b6115e6816111b1565b81146115f0575f5ffd5b50565b5f81519050611601816115dd565b92915050565b5f6020828403121561161c5761161b6110e2565b5b5f611629848285016115f3565b91505092915050565b7f6e6f7420656e6f75676820616d6f756e740000000000000000000000000000005f82015250565b5f61166660118361105c565b915061167182611632565b602082019050919050565b5f6020820190508181035f8301526116938161165a565b9050919050565b7f5f5f0000000000000000000000000000000000000000000000000000000000005f82015250565b5f6116ce60028361105c565b91506116d98261169a565b602082019050919050565b5f6020820190508181035f8301526116fb816116c2565b9050919050565b5f6060820190506117155f8301866114e7565b61172260208301856114e7565b61172f60408301846111e4565b949350505050565b5f60608201905061174a5f8301866114e7565b61175760208301856111e4565b61176460408301846111e4565b94935050505056fea264697066735822122080ff74c5744f72641eaf6d05e17394ed62593903a37a63854fad5118e32fa73d64736f6c634300081e0033","linkReferences":{}},"methodIdentifiers":{"allowance(address,address)":"dd62ed3e","approve(address,uint256)":"095ea7b3","balanceOf(address)":"70a08231","convertAssetToShare(uint256)":"73fec450","convertSharesToAsset(uint256)":"2d128728","decimals()":"313ce567","deposit(uint256)":"b6b55f25","name()":"06fdde03","symbol()":"95d89b41","totalAsset()":"f9557ccb","totalSupply()":"18160ddd","transfer(address,uint256)":"a9059cbb","transferFrom(address,address,uint256)":"23b872dd","withdraw(uint256)":"2e1a7d4d"},"id":25}